:020000020000FC
:10000000F894D8E0CFEFCDBFDEBF51E01BD102E0C6
:10001000CAE4D4E00883D5E008837D2E51D08CD08B
:10002000C1E07C26D72DC8E0AFEFBFEF30D1D4E0E0
:1000300099D0D39597D0D72DC4E0AFEFBFEF3ED185
:10004000D8D1C4E4A7D0E1F7C4E0A0E0B0E036D155
:10005000FD2FE4E4C8E08ED122F4C4E0E4E480D1D2
:10006000EBCFC8E012D17ED0E4E0C8E379D1C8E399
:10007000E0E05CD1CCE3E0E063D1E4E3C8E34CD161
:100080004BD166D1C0E4A991B991B2600C9049916D
:10009000401528F2D4E06CD142F4D39569D12AF40A
:1000A000D72DC0E434D182D1E8CF01E0D027CAE413
:1000B000088103950883053009F4A9CF01D0AFCF9B
:1000C00016E0D2E0C0E095D12F7700E429930A959D
:1000D000E9F71A95C1F720E1D2E0C0E00880198065
:1000E000010C06940992C034C9F7D330B9F72A95A8
:1000F00099F7D4E0A8E003D0D5E0A8EC00C0CC2765
:10010000F1E0E8E70CE144D1E8E1FD2FA083C0E293
:1001100002E028D16ED12074BB27A20FBB1FC8E11B
:10012000A993B993B2608C9102968993FD2FE8E16F
:10013000C0E003E017D10895A4D0C0E3DFD062E2AD
:1001400064D0D2E0C0E00881A0EEB7E0D1D000EFEB
:100150001991011BA0E0B0E0CBD0C034A1F7D3309F
:1001600091F70895CAE43881AFE1B0E0D43011F0DE
:10017000A0E0B8EFC0E19BC00F0EA0C0FFFE2012B0
:100180000A070A0700001E0700E006100CE0061030
:10019000000000FEF1E0ECEE03E0059007B80590EA
:1001A00008B8059000927C0015D0A22DB32D12D076
:1001B000A215B30571F4059011242018310825917A
:1001C000FFD0259102D1099219920A9531F70A9030
:1001D0000020089517EC10937A0010917A0016FD14
:1001E000FCCF2090780030907900089505044153A9
:1001F00010290A08427B0613090142B601038F93B6
:100200009F9303D07F916F9103C020E2772701C0B5
:1002100028E26F9325B9672F07D02C9A2C986F91FD
:1002200003D02C9A2A9A08957727660F771F660FB6
:10023000771F2BB12370262B2BB925B12C7F272BB1
:1002400025B908956FE364B96CEF6AB96CE365B9D9
:1002500066276BB9F2E0EAE66591603029F0D5DFF8
:1002600075916591D5DFF8CF089501010060A70071
:100270006100011014E00701330063E088E390E5BA
:10028000BECF63E080E390E5BACFA0E0B0E02E807F
:10029000F4DF61E288819981B2DF60E28A81820DB8
:1002A0009927ADDF0C8122D02A949AF708953F93C5
:1002B000EEDF3F9128963A95D1F7089561E2888163
:1002C00099819DDF60E28A819B81059798DFD9DF64
:1002D0000AE00CD061E288819981059790DF60E2A5
:1002E0008A819B818CDFC9DF0AE000C062E28DDF7A
:1002F0006A2F7B2F8DDF0A95D9F7089561E28881F7
:1003000099817DDF60E28A819B8179DF0895F6DF44
:1003100062E28FEF9FEF73CF00D0088019802190A9
:100320003190020C131C09921992089500D0088094
:10033000198021903190021813080992199208959A
:1003400000D02190319020E43BD009921992089579
:1003500000D00190119020E438D0099219920895AC
:1003600004E01FC0D9DF249634970A95D9F7089581
:10037000E0E4C8E101D05AF0019011902990399041
:100380000218130822F02A803B80201431040895BB
:100390000590112407FC1094099219920A95C1F74F
:1003A0000895019009920A95E1F7089525E03FE04C
:1003B00042EF4A95F1F73A95E1F72A95D1F708957A
:1003C000329E502C229E150C08953327EE24FF18E0
:1003D00041E1001C111C4A9509F40895EE1CFF1C14
:1003E000E21AF30A20F4E20EF31E8894F2CF089486
:0E03F000F0CF569510F424EB5227252F0895D8
:00000001FF
